:020000040000fa
:080000000001040000000000f3
:020000040000fa
:04000800c80100002b
:020000040000fa
:04000c00c801000027
:020000040000fa
:04001000c801000023
:020000040000fa
:04001400c80100001f
:020000040000fa
:04001800c80100001b
:020000040000fa
:04001c00c801000017
:020000040000fa
:04002000c801000013
:020000040000fa
:04002400c80100000f
:020000040000fa
:04002800c80100000b
:020000040000fa
:04002c00c801000007
:020000040000fa
:04003000c801000003
:020000040000fa
:04003400c8010000ff
:020000040000fa
:04003800c8010000fb
:020000040000fa
:04003c00c8010000f7
:020000040000fa
:04004000c8010000f3
:020000040000fa
:04004400c8010000ef
:020000040000fa
:04004800c8010000eb
:020000040000fa
:04004c00c8010000e7
:020000040000fa
:04005000c8010000e3
:020000040000fa
:04005400c8010000df
:020000040000fa
:04005800c8010000db
:020000040000fa
:04005c00c8010000d7
:020000040000fa
:04006000c8010000d3
:020000040000fa
:04006400c8010000cf
:020000040000fa
:04006800c8010000cb
:020000040000fa
:04006c00c8010000c7
:020000040000fa
:04007000c8010000c3
:020000040000fa
:04007400c8010000bf
:020000040000fa
:04007800c8010000bb
:020000040000fa
:04007c00c8010000b7
:020000040000fa
:04008000c8010000b3
:020000040000fa
:04008400c8010000af
:020000040000fa
:04008800c8010000ab
:020000040000fa
:04008c00c8010000a7
:020000040000fa
:04009000c8010000a3
:020000040000fa
:04009400c80100009f
:020000040000fa
:04009800c80100009b
:020000040000fa
:04009c00c801000097
:020000040000fa
:0400a000c801000093
:020000040000fa
:0400a400c80100008f
:020000040000fa
:0400a800c80100008b
:020000040000fa
:0400ac00c801000087
:020000040000fa
:0400b000c801000083
:020000040000fa
:0400b400c80100007f
:020000040000fa
:0400b800c80100007b
:020000040000fa
:0400bc00c801000077
:020000040000fa
:0400c000c801000073
:020000040000fa
:0400c400c80100006f
:020000040000fa
:0400c800c80100006b
:020000040000fa
:0400cc00c801000067
:020000040000fa
:0400d000c801000063
:020000040000fa
:0400d400c80100005f
:020000040000fa
:0400d800c80100005b
:020000040000fa
:04010800c80100002a
:020000040000fa
:04010c00c801000026
:020000040000fa
:04011000c801000022
:020000040000fa
:04011400c80100001e
:020000040000fa
:04011800c80100001a
:020000040000fa
:04011c00c801000016
:020000040000fa
:04012000c801000012
:020000040000fa
:04012400c80100000e
:020000040000fa
:04012800c80100000a
:020000040000fa
:04012c00c801000006
:020000040000fa
:04013000c801000002
:020000040000fa
:04013400c8010000fe
:020000040000fa
:04013800c8010000fa
:020000040000fa
:04013c00c8010000f6
:020000040000fa
:04014000c8010000f2
:020000040000fa
:04014400c8010000ee
:020000040000fa
:04014800c8010000ea
:020000040000fa
:04014c00c8010000e6
:020000040000fa
:04015000c8010000e2
:020000040000fa
:04015400c8010000de
:020000040000fa
:04015800c8010000da
:020000040000fa
:04015c00c8010000d6
:020000040000fa
:04016000c8010000d2
:020000040000fa
:04016400c8010000ce
:020000040000fa
:04016800c8010000ca
:020000040000fa
:04016c00c8010000c6
:020000040000fa
:04017000c8010000c2
:020000040000fa
:04017400c8010000be
:020000040000fa
:04017800c8010000ba
:020000040000fa
:04017c00c8010000b6
:020000040000fa
:04018000c8010000b2
:020000040000fa
:04018400c8010000ae
:020000040000fa
:04018800c8010000aa
:020000040000fa
:04018c00c8010000a6
:020000040000fa
:04019000c8010000a2
:020000040000fa
:04019400c80100009e
:020000040000fa
:04019800c80100009a
:020000040000fa
:04019c00c801000096
:020000040000fa
:0401a000c801000092
:020000040000fa
:0401a400c80100008e
:020000040000fa
:0401a800c80100008a
:020000040000fa
:0401ac00c801000086
:020000040000fa
:0401b000c801000082
:020000040000fa
:0401b400c80100007e
:020000040000fa
:0401b800c80100007a
:020000040000fa
:0401bc00c801000076
:020000040000fa
:0401c000c801000072
:020000040000fa
:0401c400c80100006e
:020000040000fa
:0401c800c80100006a
:020000040000fa
:0401cc00c801000066
:020000040000fa
:0401d000c801000062
:020000040000fa
:0401d400c80100005e
:020000040000fa
:0401d800c80100005a
:020000040000fa
:100200006f8620000e7f22000e0188000000000093
:10021000000020000000e000020032000001200089
:1002200020028800140007005b0007000000e000c7
:1002300003003a0060612000010020000200370046
:100240000000200001002000810f7000010032003a
:1002500014000700000020000000e000020032004f
:100260000000020000000000ce01020000000000bb
:100270000040da000000fe004440a9000000200019
:100280000000e0000300320000002000a001880010
:100290004440a800000006008a1f78008b1f7800e9
:1002a0000000060091018800800478000000eb0047
:1002b0001a003700e284440032a0b4009905ba0065
:1002c000e284440032a0b4009906ba00e2844400fb
:1002d00032a0b4000006eb00476fde00fd07b2005d
:1002e000636ce10003003a00ebff07000000eb0045
:1002f0000a003700606ce10004003a00005deb008a
:100300008b05e900fdff3e00040037006168e10055
:10031000010032000086eb000b00070019c7ba008d
:100320001905ba000e04e00003003a000a00e000dc
:10033000e0ff3a0000000600fe07b2009e018800c0
:100340008a047800f5ff3700395dba008b05e900b3
:100350000c003200295dba008b05e900080032006c
:100360000c00e00003003a00e284440032a0b40034
:10037000f5ff370019ddba008b05e900faff3a00f6
:100380008904e800e184440032a0b40000000600c3
:0c0390000040da000000fe000000050044
:020000040000fa
:10039c002a00fa00f0cf2f00301688000030200021
:1003ac005016880000ff20009016880000002f00d7
:1003bc00b0168800f0fd2f00f0168800f0cf2f004b
:1003cc00c0168800dc22ef0090012000f01088009d
:1003dc0000002800b010880000402000c0108800e9
:1003ec0068004700ad0107000e4890000000fb00bc
:1003fc00e40f500025003200e40f500007003c00d1
:10040c00e20f500011003200e20f50002f003c00b0
:10041c000000e000ba003200d6003700e70f5000b1
:10042c006d003200e70f500003003c00e50f500058
:10043c0048003200cf003700e80f50008400320033
:10044c00e90f5000b0003200ca0037006a004700c4
:10045c00920107006a0047000000e8008f010700c6
:10046c006a0047000080e8008c0107005e019000e4
:10047c00ee01900040802000c20007000106200021
:10048c004080200067010700bd0037006e00470068
:10049c00820107006e0047000000e8007f010700a2
:1004ac006e0047000080e8007c0107007e01900090
:1004bc008e09900040802000d80007000102200027
:1004cc004080200057010700ad0037007200470044
:1004dc0072010700720047000000e8006f0107007e
:1004ec00720047000080e8006c0107000040eb0040
:1004fc00505798000000eb00000f78000500370003
:10050c009e007800408020000080400063010700be
:10051c001e0fe800f00520009e007800808f500030
:10052c00f7ff34009e0890002e089000a3010700ee
:10053c0010042400a40107001e099000ae099000cd
:10054c0040802000d700070010c0b300470107000f
:10055c008b003700760047005001070076004700fb
:10056c000000e8004d010700760047000080e8001d
:10057c004a0107000000eb00100798000700370045
:10058c009e00900040802000008040004301070046
:10059c001e0090000000e800100798001e0090005c
:1005ac00ff0f5000f6ff3400be0890004e0890007c
:1005bc008201070050042400830107003e099000cb
:1005cc00ce09900040802000e800070010c0b30066
:1005dc00260107006a0037000000eb002007980096
:1005ec0017003700ae0090004080200000804000d3
:1005fc00ae0090008100e800210798002701070059
:10060c00ae0090004080200000804000ae009000c2
:10061c008100e8002107980020010700ae0090003f
:10062c004080200000804000ae0090008100e80077
:10063c00210798001901070010c0b3000b01070037
:10064c002e009000f40f5000e6ff34004c003700f1
:10065c000000eb003007980000002000810f200004
:10066c00500f9800610f9800200037004180200047
:10067c003e00900000804000104078000004e00034
:10068c0011003a003e0090000000e800418020007c
:10069c0061407800605f98003e0090000080e800a8
:1006ac004180200061407800705f9800fe09900046
:1006bc000e119000de0890006e0890004d010700ae
:1006cc0080002400400107003e00900063004000c1
:1006dc00300798005e089000ee0890006200400021
:1006ec00e0804800500f9800610f98003e00900089
:1006fc00f40f5000ddff34004601070020003700e6
:10070c00440107001e00370000002000f10f2000fc
:10071c0010179800211798009e1090002e10900032
:10072c00380107003017980041179800600220002c
:10073c000e00400041002000ba00070020002000fd
:10074c00f10f200010179800211798009e109000b0
:10075c002e1090002b0107003017980041179800bd
:10076c00600220000e00400041002000ad00070098
:10077c00030037000040eb00bc0007000000000045
:10078c0017ff37000c00fa0030079800420798005a
:10079c00530798000000eb00000f78001a00370098
:1007ac00ce0090005e009000160107001007980024
:1007bc0021079800ce4090003e0090000148780040
:1007cc003e0090000000e800be4090000148780018
:1007dc003e0090000080e800ae4090000148780098
:1007ec003e00900063004000300798004e009000df
:1007fc00de00900062004000e08048004007980056
:10080c00510798001e0fe8001e007800ff0f5000e3
:10081c00e3ff34000080fa00000006000c00fa0030
:10082c003007980042079800530798000000eb002f
:10083c00000f780016003700ce0090005e0090008c
:10084c00f00007001007980021079800be409000a8
:10085c003e009000014878003e0090000000e80047
:10086c00ae409000014878003e0090000080e80007
:10087c00300798004e009000de00900062004000af
:10088c00e080480040079800510798001e0fe800d0
:10089c001e007800ef0f5000e7ff34000080fa00d4
:1008ac00000006000e00fa0040079800520798005e
:1008bc00630798000000eb00000f78000000eb00cd
:1008cc0010079800220037001e009000ce00900008
:1008dc000080400010407800404798001e009000b7
:1008ec000000e800ce00900000804000104078002e
:1008fc00504798001e0090000080e800ce00900049
:10090c000080400010407800604798000040eb00e9
:10091c00704798001e00900063004000100798007c
:10092c00ae0190003e019000de0090006e00900041
:10093c00b00007005e009000ee00900062004000e6
:10094c00e080480050079800610798001e0fe800ef
:10095c001e007800ff0f5000dbff34001000240055
:10096c00990007000080fa00000006000e00fa0053
:10097c004007980052079800630798000000eb00ae
:10098c00000f78000000eb00100798001e003700e5
:10099c001e009000ce0090000080400010407800b7
:1009ac00404798001e0090000000e800ce00900028
:1009bc000080400010407800504798000040eb0049
:1009cc00604798000040eb00704798001e009000b4
:1009dc000080e80010079800ae0190003e019000e6
:1009ec00de0090006e009000820007005e00900018
:1009fc00ee00900062004000e08048005007980034
:100a0c00610798001e0fe8001e007800ef0f5000e1
:100a1c00dfff3400500024006b0007000080fa0058
:100a2c00000006000600fa00100798002107980045
:100a3c000000eb00000f7800060037001e00780065
:100a4c009e009000008040001040780007000700d6
:100a5c001e0fe8002e0090009e007800808f500042
:100a6c00f6ff35000080fa00000006000200fa00d4
:100a7c00004f780000000000c11080000010200022
:100a8c00008060000000e000fbff32001e00fb0055
:100a9c00d01088000080fa00000006000200fa0066
:100aac00000f7800010037000000000000408000bb
:100abc000000e80000408800004080000000e000da
:100acc0009003a00104080000000e8001040880047
:100adc00d5e2a800000000000000000000000000ab
:100aec00d5c2a80008003700004080000000e000dc
:100afc0005003d00d5e2a900000000000000000048
:100b0c0000000000d5c2a90010408000ea0f500080
:100b1c0011003400d5e2a900000000000000000024
:100b2c0000000000d5c2a9000028ef000300370028
:100b3c00004080000000e800004088000040800079
:100b4c00e10f4000faff3a001e0078008040eb00f5
:100b5c000148780017003700c01080006400600066
:100b6c000000e0000100320011003700c0108000ce
:100b7c00620060000000e000020032001822a900b0
:100b8c000b003700c0108000610060000000e00026
:100b9c00c5ff32000228ef00e01080008040780092
:100bac001e007800014878000000000001003700aa
:100bbc00beff37000080fa0000000600203b8800d2
:100bcc00113b880000000600003b88005005200007
:100bdc00303b8800a00a2000303b880061e7a80069
:100bec00000000000000000061e7af00feff3700ce
:100bfc0000000600900188008308bb008288bb00bf
:100c0c0000000600900188001100ba009180ba0023
:100c1c0000000600000704000000000000000600b1
:020000040000fa
:100c2c000408000062000000000000000008000042
:100c3c000200000002000000010000000208000099
:0c0c4c000200000000000000000000009a
:020000040000fa
:0200000401f009
:04000000e5bf000058
:020000040000fa
:0200000401f009
:04000400ff7f00007a
:020000040000fa
:0200000401f009
:04000800cfff000026
:020000040000fa
:0200000401f009
:04000c00feff0000f3
:00000001FF
